{
  "contractName": "SolnSquareVerifier",
  "abi": [
    {
      "inputs": [
        {
          "internalType": "address",
          "name": "verifierAddress",
          "type": "address"
        },
        {
          "internalType": "string",
          "name": "name",
          "type": "string"
        },
        {
          "internalType": "string",
          "name": "symbol",
          "type": "string"
        }
      ],
      "stateMutability": "nonpayable",
      "type": "constructor"
    },
    {
      "anonymous": false,
      "inputs": [
        {
          "indexed": true,
          "internalType": "address",
          "name": "owner",
          "type": "address"
        },
        {
          "indexed": true,
          "internalType": "address",
          "name": "approved",
          "type": "address"
        },
        {
          "indexed": true,
          "internalType": "uint256",
          "name": "tokenId",
          "type": "uint256"
        }
      ],
      "name": "Approval",
      "type": "event"
    },
    {
      "anonymous": false,
      "inputs": [
        {
          "indexed": true,
          "internalType": "address",
          "name": "owner",
          "type": "address"
        },
        {
          "indexed": true,
          "internalType": "address",
          "name": "operator",
          "type": "address"
        },
        {
          "indexed": false,
          "internalType": "bool",
          "name": "approved",
          "type": "bool"
        }
      ],
      "name": "ApprovalForAll",
      "type": "event"
    },
    {
      "anonymous": false,
      "inputs": [
        {
          "indexed": false,
          "internalType": "address",
          "name": "previousOwner",
          "type": "address"
        },
        {
          "indexed": false,
          "internalType": "address",
          "name": "newOwner",
          "type": "address"
        }
      ],
      "name": "OwnershipTransferred",
      "type": "event"
    },
    {
      "anonymous": false,
      "inputs": [
        {
          "indexed": true,
          "internalType": "address",
          "name": "caller",
          "type": "address"
        }
      ],
      "name": "Paused",
      "type": "event"
    },
    {
      "anonymous": false,
      "inputs": [
        {
          "indexed": false,
          "internalType": "address",
          "name": "caller",
          "type": "address"
        },
        {
          "indexed": false,
          "internalType": "uint256",
          "name": "index",
          "type": "uint256"
        },
        {
          "indexed": false,
          "internalType": "bytes32",
          "name": "hash",
          "type": "bytes32"
        }
      ],
      "name": "SolutionAdded",
      "type": "event"
    },
    {
      "anonymous": false,
      "inputs": [
        {
          "indexed": true,
          "internalType": "address",
          "name": "from",
          "type": "address"
        },
        {
          "indexed": true,
          "internalType": "address",
          "name": "to",
          "type": "address"
        },
        {
          "indexed": true,
          "internalType": "uint256",
          "name": "tokenId",
          "type": "uint256"
        }
      ],
      "name": "Transfer",
      "type": "event"
    },
    {
      "anonymous": false,
      "inputs": [
        {
          "indexed": true,
          "internalType": "address",
          "name": "caller",
          "type": "address"
        }
      ],
      "name": "Unpaused",
      "type": "event"
    },
    {
      "inputs": [
        {
          "internalType": "bytes32",
          "name": "_myid",
          "type": "bytes32"
        },
        {
          "internalType": "string",
          "name": "_result",
          "type": "string"
        }
      ],
      "name": "__callback",
      "outputs": [],
      "stateMutability": "pure",
      "type": "function",
      "constant": true
    },
    {
      "inputs": [
        {
          "internalType": "bytes32",
          "name": "",
          "type": "bytes32"
        },
        {
          "internalType": "string",
          "name": "",
          "type": "string"
        },
        {
          "internalType": "bytes",
          "name": "",
          "type": "bytes"
        }
      ],
      "name": "__callback",
      "outputs": [],
      "stateMutability": "pure",
      "type": "function",
      "constant": true
    },
    {
      "inputs": [
        {
          "internalType": "address",
          "name": "to",
          "type": "address"
        },
        {
          "internalType": "uint256",
          "name": "tokenId",
          "type": "uint256"
        }
      ],
      "name": "approve",
      "outputs": [],
      "stateMutability": "nonpayable",
      "type": "function"
    },
    {
      "inputs": [
        {
          "internalType": "address",
          "name": "owner",
          "type": "address"
        }
      ],
      "name": "balanceOf",
      "outputs": [
        {
          "internalType": "uint256",
          "name": "",
          "type": "uint256"
        }
      ],
      "stateMutability": "view",
      "type": "function",
      "constant": true
    },
    {
      "inputs": [],
      "name": "baseTokenURI",
      "outputs": [
        {
          "internalType": "string",
          "name": "",
          "type": "string"
        }
      ],
      "stateMutability": "view",
      "type": "function",
      "constant": true
    },
    {
      "inputs": [
        {
          "internalType": "uint256",
          "name": "tokenId",
          "type": "uint256"
        }
      ],
      "name": "getApproved",
      "outputs": [
        {
          "internalType": "address",
          "name": "",
          "type": "address"
        }
      ],
      "stateMutability": "view",
      "type": "function",
      "constant": true
    },
    {
      "inputs": [],
      "name": "getOwner",
      "outputs": [
        {
          "internalType": "address",
          "name": "",
          "type": "address"
        }
      ],
      "stateMutability": "view",
      "type": "function",
      "constant": true
    },
    {
      "inputs": [
        {
          "internalType": "address",
          "name": "owner",
          "type": "address"
        },
        {
          "internalType": "address",
          "name": "operator",
          "type": "address"
        }
      ],
      "name": "isApprovedForAll",
      "outputs": [
        {
          "internalType": "bool",
          "name": "",
          "type": "bool"
        }
      ],
      "stateMutability": "view",
      "type": "function",
      "constant": true
    },
    {
      "inputs": [
        {
          "internalType": "address",
          "name": "to",
          "type": "address"
        },
        {
          "internalType": "uint256",
          "name": "tokenId",
          "type": "uint256"
        }
      ],
      "name": "mint",
      "outputs": [
        {
          "internalType": "bool",
          "name": "",
          "type": "bool"
        }
      ],
      "stateMutability": "nonpayable",
      "type": "function"
    },
    {
      "inputs": [],
      "name": "name",
      "outputs": [
        {
          "internalType": "string",
          "name": "",
          "type": "string"
        }
      ],
      "stateMutability": "view",
      "type": "function",
      "constant": true
    },
    {
      "inputs": [
        {
          "internalType": "uint256",
          "name": "tokenId",
          "type": "uint256"
        }
      ],
      "name": "ownerOf",
      "outputs": [
        {
          "internalType": "address",
          "name": "",
          "type": "address"
        }
      ],
      "stateMutability": "view",
      "type": "function",
      "constant": true
    },
    {
      "inputs": [
        {
          "internalType": "address",
          "name": "from",
          "type": "address"
        },
        {
          "internalType": "address",
          "name": "to",
          "type": "address"
        },
        {
          "internalType": "uint256",
          "name": "tokenId",
          "type": "uint256"
        }
      ],
      "name": "safeTransferFrom",
      "outputs": [],
      "stateMutability": "nonpayable",
      "type": "function"
    },
    {
      "inputs": [
        {
          "internalType": "address",
          "name": "from",
          "type": "address"
        },
        {
          "internalType": "address",
          "name": "to",
          "type": "address"
        },
        {
          "internalType": "uint256",
          "name": "tokenId",
          "type": "uint256"
        },
        {
          "internalType": "bytes",
          "name": "_data",
          "type": "bytes"
        }
      ],
      "name": "safeTransferFrom",
      "outputs": [],
      "stateMutability": "nonpayable",
      "type": "function"
    },
    {
      "inputs": [
        {
          "internalType": "address",
          "name": "to",
          "type": "address"
        },
        {
          "internalType": "bool",
          "name": "approved",
          "type": "bool"
        }
      ],
      "name": "setApprovalForAll",
      "outputs": [],
      "stateMutability": "nonpayable",
      "type": "function"
    },
    {
      "inputs": [],
      "name": "setPause",
      "outputs": [],
      "stateMutability": "nonpayable",
      "type": "function"
    },
    {
      "inputs": [],
      "name": "setUnpause",
      "outputs": [],
      "stateMutability": "nonpayable",
      "type": "function"
    },
    {
      "inputs": [
        {
          "internalType": "bytes4",
          "name": "interfaceId",
          "type": "bytes4"
        }
      ],
      "name": "supportsInterface",
      "outputs": [
        {
          "internalType": "bool",
          "name": "",
          "type": "bool"
        }
      ],
      "stateMutability": "view",
      "type": "function",
      "constant": true
    },
    {
      "inputs": [],
      "name": "symbol",
      "outputs": [
        {
          "internalType": "string",
          "name": "",
          "type": "string"
        }
      ],
      "stateMutability": "view",
      "type": "function",
      "constant": true
    },
    {
      "inputs": [
        {
          "internalType": "uint256",
          "name": "index",
          "type": "uint256"
        }
      ],
      "name": "tokenByIndex",
      "outputs": [
        {
          "internalType": "uint256",
          "name": "",
          "type": "uint256"
        }
      ],
      "stateMutability": "view",
      "type": "function",
      "constant": true
    },
    {
      "inputs": [
        {
          "internalType": "address",
          "name": "owner",
          "type": "address"
        },
        {
          "internalType": "uint256",
          "name": "index",
          "type": "uint256"
        }
      ],
      "name": "tokenOfOwnerByIndex",
      "outputs": [
        {
          "internalType": "uint256",
          "name": "",
          "type": "uint256"
        }
      ],
      "stateMutability": "view",
      "type": "function",
      "constant": true
    },
    {
      "inputs": [
        {
          "internalType": "uint256",
          "name": "tokenId",
          "type": "uint256"
        }
      ],
      "name": "tokenURI",
      "outputs": [
        {
          "internalType": "string",
          "name": "",
          "type": "string"
        }
      ],
      "stateMutability": "view",
      "type": "function",
      "constant": true
    },
    {
      "inputs": [],
      "name": "totalSupply",
      "outputs": [
        {
          "internalType": "uint256",
          "name": "",
          "type": "uint256"
        }
      ],
      "stateMutability": "view",
      "type": "function",
      "constant": true
    },
    {
      "inputs": [
        {
          "internalType": "address",
          "name": "from",
          "type": "address"
        },
        {
          "internalType": "address",
          "name": "to",
          "type": "address"
        },
        {
          "internalType": "uint256",
          "name": "tokenId",
          "type": "uint256"
        }
      ],
      "name": "transferFrom",
      "outputs": [],
      "stateMutability": "nonpayable",
      "type": "function"
    },
    {
      "inputs": [
        {
          "internalType": "address",
          "name": "newOwner",
          "type": "address"
        }
      ],
      "name": "transferOwnership",
      "outputs": [],
      "stateMutability": "nonpayable",
      "type": "function"
    },
    {
      "inputs": [
        {
          "internalType": "uint256[2]",
          "name": "a_",
          "type": "uint256[2]"
        },
        {
          "internalType": "uint256[2][2]",
          "name": "b_",
          "type": "uint256[2][2]"
        },
        {
          "internalType": "uint256[2]",
          "name": "c_",
          "type": "uint256[2]"
        },
        {
          "internalType": "uint256[2]",
          "name": "input_",
          "type": "uint256[2]"
        },
        {
          "internalType": "uint256",
          "name": "tokenId",
          "type": "uint256"
        }
      ],
      "name": "mintNft",
      "outputs": [],
      "stateMutability": "nonpayable",
      "type": "function"
    }
  ],
  "bytecode": "0x60806040523480156200001157600080fd5b506040516200424a3803806200424a8339818101604052810190620000379190620003eb565b818181816040518060600160405280603f81526020016200420b603f9139336000806101000a81548173ffffffffffffffffffffffffffffffffffffffff021916908373ffffffffffffffffffffffffffffffffffffffff1602179055507f8be0079c531659141344cd1fd0a4f28419497f9722a3daafe3b4186f6b6457e060008060009054906101000a900473ffffffffffffffffffffffffffffffffffffffff16604051620000ea92919062000496565b60405180910390a160008060146101000a81548160ff021916908315150217905550620001246301ffc9a760e01b6200020660201b60201c565b6200013c6380ac58cd60e01b6200020660201b60201c565b6200015463780e9d6360e01b6200020660201b60201c565b82600f90805190602001906200016c929190620002a6565b50816010908051906020019062000185929190620002a6565b5080601190805190602001906200019e929190620002a6565b50620001b7635b5e139f60e01b6200020660201b60201c565b505050505082601360006101000a81548173ffffffffffffffffffffffffffffffffffffffff021916908373ffffffffffffffffffffffffffffffffffffffff16021790555050505062000695565b63ffffffff60e01b817bffffffffffffffffffffffffffffffffffffffffffffffffffffffff191614156200023a57600080fd5b6001806000837bffffffffffffffffffffffffffffffffffffffffffffffffffffffff19167bffffffffffffffffffffffffffffffffffffffffffffffffffffffff1916815260200190815260200160002060006101000a81548160ff02191690831515021790555050565b828054620002b4906200058c565b90600052602060002090601f016020900481019282620002d8576000855562000324565b82601f10620002f357805160ff191683800117855562000324565b8280016001018555821562000324579182015b828111156200032357825182559160200191906001019062000306565b5b50905062000333919062000337565b5090565b5b808211156200035257600081600090555060010162000338565b5090565b60006200036d6200036784620004ec565b620004c3565b9050828152602081018484840111156200038c576200038b6200065b565b5b6200039984828562000556565b509392505050565b600081519050620003b2816200067b565b92915050565b600082601f830112620003d057620003cf62000656565b5b8151620003e284826020860162000356565b91505092915050565b60008060006060848603121562000407576200040662000665565b5b60006200041786828701620003a1565b935050602084015167ffffffffffffffff8111156200043b576200043a62000660565b5b6200044986828701620003b8565b925050604084015167ffffffffffffffff8111156200046d576200046c62000660565b5b6200047b86828701620003b8565b9150509250925092565b620004908162000522565b82525050565b6000604082019050620004ad600083018562000485565b620004bc602083018462000485565b9392505050565b6000620004cf620004e2565b9050620004dd8282620005c2565b919050565b6000604051905090565b600067ffffffffffffffff8211156200050a576200050962000627565b5b62000515826200066a565b9050602081019050919050565b60006200052f8262000536565b9050919050565b600073ffffffffffffffffffffffffffffffffffffffff82169050919050565b60005b838110156200057657808201518184015260208101905062000559565b8381111562000586576000848401525b50505050565b60006002820490506001821680620005a557607f821691505b60208210811415620005bc57620005bb620005f8565b5b50919050565b620005cd826200066a565b810181811067ffffffffffffffff82111715620005ef57620005ee62000627565b5b80604052505050565b7f4e487b7100000000000000000000000000000000000000000000000000000000600052602260045260246000fd5b7f4e487b7100000000000000000000000000000000000000000000000000000000600052604160045260246000fd5b600080fd5b600080fd5b600080fd5b600080fd5b6000601f19601f8301169050919050565b620006868162000522565b81146200069257600080fd5b50565b613b6680620006a56000396000f3fe608060405234801561001057600080fd5b50600436106101735760003560e01c80636352211e116100de578063b88d4fde11610097578063d431b1ac11610071578063d431b1ac1461045a578063d547cfb714610464578063e985e9c514610482578063f2fde38b146104b257610173565b8063b88d4fde146103f2578063ba0882cc1461040e578063c87b56dd1461042a57610173565b80636352211e1461033057806370a0823114610360578063848cb5c614610390578063893d20e81461039a57806395d89b41146103b8578063a22cb465146103d657610173565b806327dc297e1161013057806327dc297e1461024c5780632f745c591461026857806338bbfa501461029857806340c10f19146102b457806342842e0e146102e45780634f6ccce71461030057610173565b806301ffc9a71461017857806306fdde03146101a8578063081812fc146101c6578063095ea7b3146101f657806318160ddd1461021257806323b872dd14610230575b600080fd5b610192600480360381019061018d9190612be2565b6104ce565b60405161019f919061316e565b60405180910390f35b6101b0610536565b6040516101bd9190613189565b60405180910390f35b6101e060048036038101906101db9190612c3c565b6105c8565b6040516101ed9190613060565b60405180910390f35b610210600480360381019061020b9190612a10565b610605565b005b61021a6107b2565b6040516102279190613366565b60405180910390f35b61024a600480360381019061024591906128fa565b6107bf565b005b61026660048036038101906102619190612afb565b6107e2565b005b610282600480360381019061027d9190612a10565b61083e565b60405161028f9190613366565b60405180910390f35b6102b260048036038101906102ad9190612b57565b6108b8565b005b6102ce60048036038101906102c99190612a10565b6108bd565b6040516102db919061316e565b60405180910390f35b6102fe60048036038101906102f991906128fa565b610962565b005b61031a60048036038101906103159190612c3c565b610982565b6040516103279190613366565b60405180910390f35b61034a60048036038101906103459190612c3c565b6109bd565b6040516103579190613060565b60405180910390f35b61037a6004803603810190610375919061288d565b6109fa565b6040516103879190613366565b60405180910390f35b610398610a4a565b005b6103a2610b8d565b6040516103af9190613060565b60405180910390f35b6103c0610bb6565b6040516103cd9190613189565b60405180910390f35b6103f060048036038101906103eb91906129d0565b610c48565b005b61040c6004803603810190610407919061294d565b610d7e565b005b61042860048036038101906104239190612a50565b610da4565b005b610444600480360381019061043f9190612c3c565b610dc1565b6040516104519190613189565b60405180910390f35b610462610e78565b005b61046c610fbc565b6040516104799190613189565b60405180910390f35b61049c600480360381019061049791906128ba565b61104e565b6040516104a9919061316e565b60405180910390f35b6104cc60048036038101906104c7919061288d565b6110e2565b005b600060016000837bffffffffffffffffffffffffffffffffffffffffffffffffffffffff19167bffffffffffffffffffffffffffffffffffffffffffffffffffffffff1916815260200190815260200160002060009054906101000a900460ff169050919050565b6060600f80546105459061366c565b80601f01602080910402602001604051908101604052809291908181526020018280546105719061366c565b80156105be5780601f10610593576101008083540402835291602001916105be565b820191906000526020600020905b8154815290600101906020018083116105a157829003601f168201915b5050505050905090565b60006003600083815260200190815260200160002060009054906101000a900473ffffffffffffffffffffffffffffffffffffffff169050919050565b6000610610826109bd565b90508073ffffffffffffffffffffffffffffffffffffffff168373ffffffffffffffffffffffffffffffffffffffff161415610681576040517f08c379a0000000000000000000000000000000000000000000000000000000008152600401610678906131cb565b60405180910390fd5b8073ffffffffffffffffffffffffffffffffffffffff163373ffffffffffffffffffffffffffffffffffffffff1614806106c157506106c0818461104e565b5b610700576040517f08c379a00000000000000000000000000000000000000000000000000000000081526004016106f79061324b565b60405180910390fd5b826003600084815260200190815260200160002060006101000a81548173ffffffffffffffffffffffffffffffffffffffff021916908373ffffffffffffffffffffffffffffffffffffffff160217905550818373ffffffffffffffffffffffffffffffffffffffff168273ffffffffffffffffffffffffffffffffffffffff167f8c5be1e5ebec7d5bd14f71427d1e84f3dd0314c0f7b2291e5b200ac8c7c3b92560405160405180910390a4505050565b6000600880549050905090565b6107c93382611246565b6107d257600080fd5b6107dd8383836112db565b505050565b61083a8282600067ffffffffffffffff81111561080257610801613803565b5b6040519080825280601f01601f1916602001820160405280156108345781602001600182028036833780820191505090505b506108b8565b5050565b6000610849836109fa565b821061085457600080fd5b600660008473ffffffffffffffffffffffffffffffffffffffff1673ffffffffffffffffffffffffffffffffffffffff16815260200190815260200160002082815481106108a5576108a46137d4565b5b9060005260206000200154905092915050565b505050565b60008060009054906101000a900473ffffffffffffffffffffffffffffffffffffffff1673ffffffffffffffffffffffffffffffffffffffff163373ffffffffffffffffffffffffffffffffffffffff161461094e576040517f08c379a0000000000000000000000000000000000000000000000000000000008152600401610945906131ab565b60405180910390fd5b61095883836112ff565b6001905092915050565b61097d83838360405180602001604052806000815250610d7e565b505050565b600061098c6107b2565b821061099757600080fd5b600882815481106109ab576109aa6137d4565b5b90600052602060002001549050919050565b60006002600083815260200190815260200160002060009054906101000a900473ffffffffffffffffffffffffffffffffffffffff169050919050565b6000610a43600460008473ffffffffffffffffffffffffffffffffffffffff1673ffffffffffffffffffffffffffffffffffffffff168152602001908152602001600020611316565b9050919050565b60008054906101000a900473ffffffffffffffffffffffffffffffffffffffff1673ffffffffffffffffffffffffffffffffffffffff163373ffffffffffffffffffffffffffffffffffffffff1614610ad8576040517f08c379a0000000000000000000000000000000000000000000000000000000008152600401610acf906131ab565b60405180910390fd5b60011515600060149054906101000a900460ff16151514610b2e576040517f08c379a0000000000000000000000000000000000000000000000000000000008152600401610b259061330b565b60405180910390fd5b60008060146101000a81548160ff0219169083151502179055503373ffffffffffffffffffffffffffffffffffffffff167f5db9ee0a495bf2e6ff9c91a7834c1ba4fdd244a5e8aa4e537bd38aeae4b073aa60405160405180910390a2565b60008060009054906101000a900473ffffffffffffffffffffffffffffffffffffffff16905090565b606060108054610bc59061366c565b80601f0160208091040260200160405190810160405280929190818152602001828054610bf19061366c565b8015610c3e5780601f10610c1357610100808354040283529160200191610c3e565b820191906000526020600020905b815481529060010190602001808311610c2157829003601f168201915b5050505050905090565b3373ffffffffffffffffffffffffffffffffffffffff168273ffffffffffffffffffffffffffffffffffffffff161415610c8157600080fd5b80600560003373ffffffffffffffffffffffffffffffffffffffff1673ffffffffffffffffffffffffffffffffffffffff16815260200190815260200160002060008473ffffffffffffffffffffffffffffffffffffffff1673ffffffffffffffffffffffffffffffffffffffff16815260200190815260200160002060006101000a81548160ff0219169083151502179055508173ffffffffffffffffffffffffffffffffffffffff163373ffffffffffffffffffffffffffffffffffffffff167f17307eab39ab6107e8899845ad3d59bd9653f200f220920489ca2b5937696c3183604051610d72919061316e565b60405180910390a35050565b610d898484846107bf565b610d9584848484611324565b610d9e57600080fd5b50505050565b610db08585858561143b565b610dba33826112ff565b5050505050565b6060610dcc82611673565b610dd557600080fd5b601260008381526020019081526020016000208054610df39061366c565b80601f0160208091040260200160405190810160405280929190818152602001828054610e1f9061366c565b8015610e6c5780601f10610e4157610100808354040283529160200191610e6c565b820191906000526020600020905b815481529060010190602001808311610e4f57829003601f168201915b50505050509050919050565b60008054906101000a900473ffffffffffffffffffffffffffffffffffffffff1673ffffffffffffffffffffffffffffffffffffffff163373ffffffffffffffffffffffffffffffffffffffff1614610f06576040517f08c379a0000000000000000000000000000000000000000000000000000000008152600401610efd906131ab565b60405180910390fd5b60001515600060149054906101000a900460ff16151514610f5c576040517f08c379a0000000000000000000000000000000000000000000000000000000008152600401610f539061322b565b60405180910390fd5b6001600060146101000a81548160ff0219169083151502179055503373ffffffffffffffffffffffffffffffffffffffff167f62e78cea01bee320cd4e420270b5ea74000d11b0c9f74754ebdbfc544b05a25860405160405180910390a2565b606060118054610fcb9061366c565b80601f0160208091040260200160405190810160405280929190818152602001828054610ff79061366c565b80156110445780601f1061101957610100808354040283529160200191611044565b820191906000526020600020905b81548152906001019060200180831161102757829003601f168201915b5050505050905090565b6000600560008473ffffffffffffffffffffffffffffffffffffffff1673ffffffffffffffffffffffffffffffffffffffff16815260200190815260200160002060008373ffffffffffffffffffffffffffffffffffffffff1673ffffffffffffffffffffffffffffffffffffffff16815260200190815260200160002060009054906101000a900460ff16905092915050565b60008054906101000a900473ffffffffffffffffffffffffffffffffffffffff1673ffffffffffffffffffffffffffffffffffffffff163373ffffffffffffffffffffffffffffffffffffffff1614611170576040517f08c379a0000000000000000000000000000000000000000000000000000000008152600401611167906131ab565b60405180910390fd5b600073ffffffffffffffffffffffffffffffffffffffff168173ffffffffffffffffffffffffffffffffffffffff1614156111aa57600080fd5b806000806101000a81548173ffffffffffffffffffffffffffffffffffffffff021916908373ffffffffffffffffffffffffffffffffffffffff1602179055507f8be0079c531659141344cd1fd0a4f28419497f9722a3daafe3b4186f6b6457e060008054906101000a900473ffffffffffffffffffffffffffffffffffffffff168260405161123b92919061307b565b60405180910390a150565b600080611252836109bd565b90508073ffffffffffffffffffffffffffffffffffffffff168473ffffffffffffffffffffffffffffffffffffffff1614806112c157508373ffffffffffffffffffffffffffffffffffffffff166112a9846105c8565b73ffffffffffffffffffffffffffffffffffffffff16145b806112d257506112d1818561104e565b5b91505092915050565b6112e68383836116e5565b6112f0838261193f565b6112fa8282611af6565b505050565b6113098282611bba565b61131281611bdb565b5050565b600081600001549050919050565b60006113458473ffffffffffffffffffffffffffffffffffffffff16611ce9565b6113525760019050611433565b60008473ffffffffffffffffffffffffffffffffffffffff1663150b7a02338887876040518563ffffffff1660e01b815260040161139394939291906130a4565b602060405180830381600087803b1580156113ad57600080fd5b505af11580156113c1573d6000803e3d6000fd5b505050506040513d601f19601f820116820180604052508101906113e59190612c0f565b905063150b7a0260e01b7bffffffffffffffffffffffffffffffffffffffffffffffffffffffff1916817bffffffffffffffffffffffffffffffffffffffffffffffffffffffff1916149150505b949350505050565b6000604051806040016040528060145481526020013373ffffffffffffffffffffffffffffffffffffffff16815250905060008160405160200161147f919061334b565b6040516020818303038152906040528051906020012090506015600082815260200190815260200160002060009054906101000a900460ff16156114f8576040517f08c379a00000000000000000000000000000000000000000000000000000000081526004016114ef9061320b565b60405180910390fd5b601360009054906101000a900473ffffffffffffffffffffffffffffffffffffffff1673ffffffffffffffffffffffffffffffffffffffff1663621e9ec0878787876040518563ffffffff1660e01b81526004016115599493929190613127565b602060405180830381600087803b15801561157357600080fd5b505af1158015611587573d6000803e3d6000fd5b505050506040513d601f19601f820116820180604052508101906115ab9190612ace565b6115ea576040517f08c379a00000000000000000000000000000000000000000000000000000000081526004016115e19061328b565b60405180910390fd5b60016015600083815260200190815260200160002060006101000a81548160ff02191690831515021790555060146000815480929190611629906136cf565b91905055507fb28582aaae510e6d1868676347916349fa4c0c49734e1a01e4373ff26a57f0923360145483604051611663939291906130f0565b60405180910390a1505050505050565b6000806002600084815260200190815260200160002060009054906101000a900473ffffffffffffffffffffffffffffffffffffffff169050600073ffffffffffffffffffffffffffffffffffffffff168173ffffffffffffffffffffffffffffffffffffffff161415915050919050565b8273ffffffffffffffffffffffffffffffffffffffff166002600083815260200190815260200160002060009054906101000a900473ffffffffffffffffffffffffffffffffffffffff1673ffffffffffffffffffffffffffffffffffffffff1614611786576040517f08c379a000000000000000000000000000000000000000000000000000000000815260040161177d906132eb565b60405180910390fd5b600073ffffffffffffffffffffffffffffffffffffffff168273ffffffffffffffffffffffffffffffffffffffff1614156117f6576040517f08c379a00000000000000000000000000000000000000000000000000000000081526004016117ed9061326b565b60405180910390fd5b6117ff81611cfc565b611846600460008573ffffffffffffffffffffffffffffffffffffffff1673ffffffffffffffffffffffffffffffffffffffff168152602001908152602001600020611dba565b61188d600460008473ffffffffffffffffffffffffffffffffffffffff1673ffffffffffffffffffffffffffffffffffffffff168152602001908152602001600020611e16565b816002600083815260200190815260200160002060006101000a81548173ffffffffffffffffffffffffffffffffffffffff021916908373ffffffffffffffffffffffffffffffffffffffff160217905550808273ffffffffffffffffffffffffffffffffffffffff168473ffffffffffffffffffffffffffffffffffffffff167fddf252ad1be2c89b69c2b068fc378daa952ba7f163c4a11628f55a4df523b3ef60405160405180910390a4505050565b60006001600660008573ffffffffffffffffffffffffffffffffffffffff1673ffffffffffffffffffffffffffffffffffffffff168152602001908152602001600020805490506119909190613578565b9050600060076000848152602001908152602001600020549050818114611a8b576000600660008673ffffffffffffffffffffffffffffffffffffffff1673ffffffffffffffffffffffffffffffffffffffff1681526020019081526020016000208381548110611a0457611a036137d4565b5b9060005260206000200154905080600660008773ffffffffffffffffffffffffffffffffffffffff1673ffffffffffffffffffffffffffffffffffffffff1681526020019081526020016000208381548110611a6357611a626137d4565b5b9060005260206000200181905550816007600083815260200190815260200160002081905550505b600660008573ffffffffffffffffffffffffffffffffffffffff1673ffffffffffffffffffffffffffffffffffffffff168152602001908152602001600020805480611ada57611ad96137a5565b5b6001900381819060005260206000200160009055905550505050565b600660008373ffffffffffffffffffffffffffffffffffffffff1673ffffffffffffffffffffffffffffffffffffffff168152602001908152602001600020805490506007600083815260200190815260200160002081905550600660008373ffffffffffffffffffffffffffffffffffffffff1673ffffffffffffffffffffffffffffffffffffffff1681526020019081526020016000208190806001815401808255809150506001900390600052602060002001600090919091909150555050565b611bc48282611e2c565b611bce8282611af6565b611bd781611fe4565b5050565b611be481611673565b611c23576040517f08c379a0000000000000000000000000000000000000000000000000000000008152600401611c1a9061332b565b60405180910390fd5b611cbf60118054611c339061366c565b80601f0160208091040260200160405190810160405280929190818152602001828054611c5f9061366c565b8015611cac5780601f10611c8157610100808354040283529160200191611cac565b820191906000526020600020905b815481529060010190602001808311611c8f57829003601f168201915b5050505050611cba8361202d565b612194565b601260008381526020019081526020016000209080519060200190611ce5929190612553565b5050565b600080823b905060008111915050919050565b600073ffffffffffffffffffffffffffffffffffffffff166003600083815260200190815260200160002060009054906101000a900473ffffffffffffffffffffffffffffffffffffffff1673ffffffffffffffffffffffffffffffffffffffff1614611db75760006003600083815260200190815260200160002060006101000a81548173ffffffffffffffffffffffffffffffffffffffff021916908373ffffffffffffffffffffffffffffffffffffffff1602179055505b50565b60008160000154905060008111611e06576040517f08c379a0000000000000000000000000000000000000000000000000000000008152600401611dfd906131eb565b60405180910390fd5b6001810382600001819055505050565b6001816000016000828254019250508190555050565b60001515611e3982611673565b151514611e7b576040517f08c379a0000000000000000000000000000000000000000000000000000000008152600401611e72906132cb565b60405180910390fd5b600073ffffffffffffffffffffffffffffffffffffffff168273ffffffffffffffffffffffffffffffffffffffff161415611eeb576040517f08c379a0000000000000000000000000000000000000000000000000000000008152600401611ee2906132ab565b60405180910390fd5b816002600083815260200190815260200160002060006101000a81548173ffffffffffffffffffffffffffffffffffffffff021916908373ffffffffffffffffffffffffffffffffffffffff160217905550611f84600460008473ffffffffffffffffffffffffffffffffffffffff1673ffffffffffffffffffffffffffffffffffffffff168152602001908152602001600020611e16565b808273ffffffffffffffffffffffffffffffffffffffff16600073ffffffffffffffffffffffffffffffffffffffff167fddf252ad1be2c89b69c2b068fc378daa952ba7f163c4a11628f55a4df523b3ef60405160405180910390a45050565b6008805490506009600083815260200190815260200160002081905550600881908060018154018082558091505060019003906000526020600020016000909190919091505550565b60606000821415612075576040518060400160405280600181526020017f3000000000000000000000000000000000000000000000000000000000000000815250905061218f565b600082905060005b600082146120a7578080612090906136cf565b915050600a826120a09190613547565b915061207d565b60008167ffffffffffffffff8111156120c3576120c2613803565b5b6040519080825280601f01601f1916602001820160405280156120f55781602001600182028036833780820191505090505b50905060006001836121079190613578565b90505b6000861461218757600a868161212357612122613747565b5b0660300160f81b82828060019003935081518110612144576121436137d4565b5b60200101907effffffffffffffffffffffffffffffffffffffffffffffffffffffffffffff1916908160001a905350600a866121809190613547565b955061210a565b819450505050505b919050565b60606121d083836040518060200160405280600081525060405180602001604052806000815250604051806020016040528060008152506121d8565b905092915050565b60606000869050600086905060008690506000869050600086905060008151835185518751895161220991906134f1565b61221391906134f1565b61221d91906134f1565b61222791906134f1565b67ffffffffffffffff8111156122405761223f613803565b5b6040519080825280601f01601f1916602001820160405280156122725781602001600182028036833780820191505090505b5090506000819050600080600090505b885181101561230a5788818151811061229e5761229d6137d4565b5b602001015160f81c60f81b8383806122b5906136cf565b9450815181106122c8576122c76137d4565b5b60200101907effffffffffffffffffffffffffffffffffffffffffffffffffffffffffffff1916908160001a9053508080612302906136cf565b915050612282565b600090505b87518110156123975787818151811061232b5761232a6137d4565b5b602001015160f81c60f81b838380612342906136cf565b945081518110612355576123546137d4565b5b60200101907effffffffffffffffffffffffffffffffffffffffffffffffffffffffffffff1916908160001a905350808061238f906136cf565b91505061230f565b600090505b8651811015612424578681815181106123b8576123b76137d4565b5b602001015160f81c60f81b8383806123cf906136cf565b9450815181106123e2576123e16137d4565b5b60200101907effffffffffffffffffffffffffffffffffffffffffffffffffffffffffffff1916908160001a905350808061241c906136cf565b91505061239c565b600090505b85518110156124b157858181518110612445576124446137d4565b5b602001015160f81c60f81b83838061245c906136cf565b94508151811061246f5761246e6137d4565b5b60200101907effffffffffffffffffffffffffffffffffffffffffffffffffffffffffffff1916908160001a90535080806124a9906136cf565b915050612429565b600090505b845181101561253e578481815181106124d2576124d16137d4565b5b602001015160f81c60f81b8383806124e9906136cf565b9450815181106124fc576124fb6137d4565b5b60200101907effffffffffffffffffffffffffffffffffffffffffffffffffffffffffffff1916908160001a9053508080612536906136cf565b9150506124b6565b82995050505050505050505095945050505050565b82805461255f9061366c565b90600052602060002090601f01602090048101928261258157600085556125c8565b82601f1061259a57805160ff19168380011785556125c8565b828001600101855582156125c8579182015b828111156125c75782518255916020019190600101906125ac565b5b5090506125d591906125d9565b5090565b5b808211156125f25760008160009055506001016125da565b5090565b6000612609612604846133a6565b613381565b9050808285604086028201111561262357612622613837565b5b60005b8581101561265357816126398882612788565b845260208401935060408301925050600181019050612626565b5050509392505050565b600061267061266b846133cc565b613381565b9050808285602086028201111561268a57612689613837565b5b60005b858110156126ba57816126a08882612878565b84526020840193506020830192505060018101905061268d565b5050509392505050565b60006126d76126d2846133f2565b613381565b9050828152602081018484840111156126f3576126f261383c565b5b6126fe84828561362a565b509392505050565b600061271961271484613423565b613381565b9050828152602081018484840111156127355761273461383c565b5b61274084828561362a565b509392505050565b60008135905061275781613abd565b92915050565b600082601f83011261277257612771613832565b5b600261277f8482856125f6565b91505092915050565b600082601f83011261279d5761279c613832565b5b60026127aa84828561265d565b91505092915050565b6000813590506127c281613ad4565b92915050565b6000815190506127d781613ad4565b92915050565b6000813590506127ec81613aeb565b92915050565b60008135905061280181613b02565b92915050565b60008151905061281681613b02565b92915050565b600082601f83011261283157612830613832565b5b81356128418482602086016126c4565b91505092915050565b600082601f83011261285f5761285e613832565b5b813561286f848260208601612706565b91505092915050565b60008135905061288781613b19565b92915050565b6000602082840312156128a3576128a2613846565b5b60006128b184828501612748565b91505092915050565b600080604083850312156128d1576128d0613846565b5b60006128df85828601612748565b92505060206128f085828601612748565b9150509250929050565b60008060006060848603121561291357612912613846565b5b600061292186828701612748565b935050602061293286828701612748565b925050604061294386828701612878565b9150509250925092565b6000806000806080858703121561296757612966613846565b5b600061297587828801612748565b945050602061298687828801612748565b935050604061299787828801612878565b925050606085013567ffffffffffffffff8111156129b8576129b7613841565b5b6129c48782880161281c565b91505092959194509250565b600080604083850312156129e7576129e6613846565b5b60006129f585828601612748565b9250506020612a06858286016127b3565b9150509250929050565b60008060408385031215612a2757612a26613846565b5b6000612a3585828601612748565b9250506020612a4685828601612878565b9150509250929050565b60008060008060006101608688031215612a6d57612a6c613846565b5b6000612a7b88828901612788565b9550506040612a8c8882890161275d565b94505060c0612a9d88828901612788565b935050610100612aaf88828901612788565b925050610140612ac188828901612878565b9150509295509295909350565b600060208284031215612ae457612ae3613846565b5b6000612af2848285016127c8565b91505092915050565b60008060408385031215612b1257612b11613846565b5b6000612b20858286016127dd565b925050602083013567ffffffffffffffff811115612b4157612b40613841565b5b612b4d8582860161284a565b9150509250929050565b600080600060608486031215612b7057612b6f613846565b5b6000612b7e868287016127dd565b935050602084013567ffffffffffffffff811115612b9f57612b9e613841565b5b612bab8682870161284a565b925050604084013567ffffffffffffffff811115612bcc57612bcb613841565b5b612bd88682870161281c565b9150509250925092565b600060208284031215612bf857612bf7613846565b5b6000612c06848285016127f2565b91505092915050565b600060208284031215612c2557612c24613846565b5b6000612c3384828501612807565b91505092915050565b600060208284031215612c5257612c51613846565b5b6000612c6084828501612878565b91505092915050565b6000612c758383612d0e565b60408301905092915050565b6000612c8d8383613042565b60208301905092915050565b612ca2816135ac565b82525050565b612cb1816135ac565b82525050565b612cc081613468565b612cca81846134ae565b9250612cd582613454565b8060005b83811015612d06578151612ced8782612c69565b9650612cf883613494565b925050600181019050612cd9565b505050505050565b612d1781613473565b612d2181846134b9565b9250612d2c8261345e565b8060005b83811015612d5d578151612d448782612c81565b9650612d4f836134a1565b925050600181019050612d30565b505050505050565b612d6e81613473565b612d7881846134c4565b9250612d838261345e565b8060005b83811015612db4578151612d9b8782612c81565b9650612da6836134a1565b925050600181019050612d87565b505050505050565b612dc5816135be565b82525050565b612dd4816135ca565b82525050565b6000612de58261347e565b612def81856134cf565b9350612dff818560208601613639565b612e088161384b565b840191505092915050565b6000612e1e82613489565b612e2881856134e0565b9350612e38818560208601613639565b612e418161384b565b840191505092915050565b6000612e596020836134e0565b9150612e648261385c565b602082019050919050565b6000612e7c6029836134e0565b9150612e8782613885565b604082019050919050565b6000612e9f601b836134e0565b9150612eaa826138d4565b602082019050919050565b6000612ec26017836134e0565b9150612ecd826138fd565b602082019050919050565b6000612ee56012836134e0565b9150612ef082613926565b602082019050919050565b6000612f086018836134e0565b9150612f138261394f565b602082019050919050565b6000612f2b601e836134e0565b9150612f3682613978565b602082019050919050565b6000612f4e6012836134e0565b9150612f59826139a1565b602082019050919050565b6000612f716012836134e0565b9150612f7c826139ca565b602082019050919050565b6000612f946016836134e0565b9150612f9f826139f3565b602082019050919050565b6000612fb76035836134e0565b9150612fc282613a1c565b604082019050919050565b6000612fda6016836134e0565b9150612fe582613a6b565b602082019050919050565b6000612ffd6014836134e0565b915061300882613a94565b602082019050919050565b6040820160008201516130296000850182613042565b50602082015161303c6020850182612c99565b50505050565b61304b81613620565b82525050565b61305a81613620565b82525050565b60006020820190506130756000830184612ca8565b92915050565b60006040820190506130906000830185612ca8565b61309d6020830184612ca8565b9392505050565b60006080820190506130b96000830187612ca8565b6130c66020830186612ca8565b6130d36040830185613051565b81810360608301526130e58184612dda565b905095945050505050565b60006060820190506131056000830186612ca8565b6131126020830185613051565b61311f6040830184612dcb565b949350505050565b60006101408201905061313d6000830187612d65565b61314a6040830186612cb7565b61315760c0830185612d65565b613165610100830184612d65565b95945050505050565b60006020820190506131836000830184612dbc565b92915050565b600060208201905081810360008301526131a38184612e13565b905092915050565b600060208201905081810360008301526131c481612e4c565b9050919050565b600060208201905081810360008301526131e481612e6f565b9050919050565b6000602082019050818103600083015261320481612e92565b9050919050565b6000602082019050818103600083015261322481612eb5565b9050919050565b6000602082019050818103600083015261324481612ed8565b9050919050565b6000602082019050818103600083015261326481612efb565b9050919050565b6000602082019050818103600083015261328481612f1e565b9050919050565b600060208201905081810360008301526132a481612f41565b9050919050565b600060208201905081810360008301526132c481612f64565b9050919050565b600060208201905081810360008301526132e481612f87565b9050919050565b6000602082019050818103600083015261330481612faa565b9050919050565b6000602082019050818103600083015261332481612fcd565b9050919050565b6000602082019050818103600083015261334481612ff0565b9050919050565b60006040820190506133606000830184613013565b92915050565b600060208201905061337b6000830184613051565b92915050565b600061338b61339c565b9050613397828261369e565b919050565b6000604051905090565b600067ffffffffffffffff8211156133c1576133c0613803565b5b602082029050919050565b600067ffffffffffffffff8211156133e7576133e6613803565b5b602082029050919050565b600067ffffffffffffffff82111561340d5761340c613803565b5b6134168261384b565b9050602081019050919050565b600067ffffffffffffffff82111561343e5761343d613803565b5b6134478261384b565b9050602081019050919050565b6000819050919050565b6000819050919050565b600060029050919050565b600060029050919050565b600081519050919050565b600081519050919050565b6000602082019050919050565b6000602082019050919050565b600081905092915050565b600081905092915050565b600081905092915050565b600082825260208201905092915050565b600082825260208201905092915050565b60006134fc82613620565b915061350783613620565b9250827fffffffffffffffffffffffffffffffffffffffffffffffffffffffffffffffff0382111561353c5761353b613718565b5b828201905092915050565b600061355282613620565b915061355d83613620565b92508261356d5761356c613747565b5b828204905092915050565b600061358382613620565b915061358e83613620565b9250828210156135a1576135a0613718565b5b828203905092915050565b60006135b782613600565b9050919050565b60008115159050919050565b6000819050919050565b60007fffffffff0000000000000000000000000000000000000000000000000000000082169050919050565b600073ffffffffffffffffffffffffffffffffffffffff82169050919050565b6000819050919050565b82818337600083830152505050565b60005b8381101561365757808201518184015260208101905061363c565b83811115613666576000848401525b50505050565b6000600282049050600182168061368457607f821691505b6020821081141561369857613697613776565b5b50919050565b6136a78261384b565b810181811067ffffffffffffffff821117156136c6576136c5613803565b5b80604052505050565b60006136da82613620565b91507fffffffffffffffffffffffffffffffffffffffffffffffffffffffffffffffff82141561370d5761370c613718565b5b600182019050919050565b7f4e487b7100000000000000000000000000000000000000000000000000000000600052601160045260246000fd5b7f4e487b7100000000000000000000000000000000000000000000000000000000600052601260045260246000fd5b7f4e487b7100000000000000000000000000000000000000000000000000000000600052602260045260246000fd5b7f4e487b7100000000000000000000000000000000000000000000000000000000600052603160045260246000fd5b7f4e487b7100000000000000000000000000000000000000000000000000000000600052603260045260246000fd5b7f4e487b7100000000000000000000000000000000000000000000000000000000600052604160045260246000fd5b600080fd5b600080fd5b600080fd5b600080fd5b600080fd5b6000601f19601f8301169050919050565b7f73656e64657220646f6573206e6f74206f776e2074686520636f6e7472616374600082015250565b7f63616e206f6e6c7920617070726f766520696620796f7520617265206e6f742060008201527f746865206f776e65720000000000000000000000000000000000000000000000602082015250565b7f436f756e7465723a2064656372656d656e74206f766572666c6f770000000000600082015250565b7f536f6c7574696f6e2065786973747320616c7265616479000000000000000000600082015250565b7f636f6e7472616374206973207061757365640000000000000000000000000000600082015250565b7f63616c6c6572206973206e6f7420617574686f72697a65640000000000000000600082015250565b7f7472616e7366657220746f20616e20696e76616c696420616464726573730000600082015250565b7f536f6c7574696f6e206e6f742076616c69640000000000000000000000000000600082015250565b7f6164647265737320697320696e76616c69640000000000000000000000000000600082015250565b7f746f6b656e496420616c72656164792065786973747300000000000000000000600082015250565b7f796f752063616e6e6f74207472616e736665722066726f6d207468697320616460008201527f647265737320286e6f7420746865206f776e6572290000000000000000000000602082015250565b7f636f6e7472616374206973206e6f742070617573656400000000000000000000600082015250565b7f746f6b656e20646f6573206e6f74206578697374000000000000000000000000600082015250565b613ac6816135ac565b8114613ad157600080fd5b50565b613add816135be565b8114613ae857600080fd5b50565b613af4816135ca565b8114613aff57600080fd5b50565b613b0b816135d4565b8114613b1657600080fd5b50565b613b2281613620565b8114613b2d57600080fd5b5056fea2646970667358221220a91bd2a3a8189d43af734e28f1e9d75b8f556119ff1b2850c3beb6a7e7f3e9d564736f6c6343000807003368747470733a2f2f73332d75732d776573742d322e616d617a6f6e6177732e636f6d2f756461636974792d626c6f636b636861696e2f63617073746f6e652f",
  "immutableReferences": {},
  "source": "pragma solidity ^0.8.0;\n\nimport './ERC721Mintable.sol';\n\ncontract SolnSquareVerifier is ERC721Mintable{\n    IVerifier private verifier;\n    uint256 private index;\n    struct Solution{\n        uint256 solIndex;\n        address solAddress;\n    } \n    mapping(bytes32 => bool) solutions;\n\n    event SolutionAdded(address caller, uint256 index, bytes32 hash);\n\n    constructor(address verifierAddress, string memory name, string memory symbol) \n    ERC721Mintable(name, symbol) {\n    verifier = IVerifier(verifierAddress);\n    }\n\n    function submitProof(uint[2] memory a_, uint[2][2] memory b_, uint[2] memory c_, uint[2] memory input_) internal {\n        Solution memory solution = Solution({\n            solIndex: index,\n            solAddress: msg.sender\n        });\n\n        bytes32 hash = keccak256(abi.encode(solution));\n\n        // Does the solution exist already?\n        require(!solutions[hash], \"Solution exists already\");\n\n        // Verify the proof\n        require(verifier.verifyTx(a_, b_, c_, input_), \"Solution not valid\");\n\n        // Proof is valid so add it to the array\n        solutions[hash] = true;\n\n        index++;\n\n        emit SolutionAdded(msg.sender, index, hash);\n    }\n\n    function mintNft(uint[2] memory a_, uint[2][2] memory b_, uint[2] memory c_, uint[2] memory input_, uint256 tokenId) external{\n        submitProof(a_, b_, c_, input_);\n        super._mint(msg.sender, tokenId);\n    }\n\n}\n\ninterface IVerifier{\n    function verifyTx(uint[2] memory a, uint[2][2] memory b, uint[2] memory c, uint[2] memory input) external returns (bool r);\n}\n  \n\n\n\n\n\n\n\n\n\n\n\n\n\n\n\n\n\n\n\n\n\n\n\n\n\n\n",
  "sourcePath": "/Users/ambroisemoreau/coding/udacity/Blockchain-Capstone/contracts/SolnSquareVerifier.sol",
  "compiler": {
    "name": "solc",
    "version": "0.8.7+commit.e28d00a7.Emscripten.clang"
  },
  "schemaVersion": "3.4.1",
  "updatedAt": "2021-08-19T09:15:05.525Z",
  "networkType": "ethereum",
  "devdoc": {
    "kind": "dev",
    "methods": {
      "isApprovedForAll(address,address)": {
        "details": "Tells whether an operator is approved by a given owner",
        "params": {
          "operator": "operator address which you want to query the approval of",
          "owner": "owner address which you want to query the approval of"
        },
        "returns": {
          "_0": "bool whether the given operator is approved by the given owner"
        }
      },
      "setApprovalForAll(address,bool)": {
        "details": "Sets or unsets the approval of a given operator An operator is allowed to transfer all tokens of the sender on their behalf",
        "params": {
          "approved": "representing the status of the approval to be set",
          "to": "operator address to set the approval"
        }
      },
      "supportsInterface(bytes4)": {
        "details": "implement supportsInterface(bytes4) using a lookup table"
      },
      "tokenByIndex(uint256)": {
        "details": "Gets the token ID at a given index of all the tokens in this contract Reverts if the index is greater or equal to the total number of tokens",
        "params": {
          "index": "uint256 representing the index to be accessed of the tokens list"
        },
        "returns": {
          "_0": "uint256 token ID at the given index of the tokens list"
        }
      },
      "tokenOfOwnerByIndex(address,uint256)": {
        "details": "Gets the token ID at a given index of the tokens list of the requested owner",
        "params": {
          "index": "uint256 representing the index to be accessed of the requested tokens list",
          "owner": "address owning the tokens list to be accessed"
        },
        "returns": {
          "_0": "uint256 token ID at the given index of the tokens list owned by the requested address"
        }
      },
      "totalSupply()": {
        "details": "Gets the total amount of tokens stored by the contract",
        "returns": {
          "_0": "uint256 representing the total amount of tokens"
        }
      }
    },
    "version": 1
  },
  "userdoc": {
    "kind": "user",
    "methods": {},
    "version": 1
  }
}